{
  "_format": "hh-sol-artifact-1",
  "contractName": "EtherDistribute",
  "sourceName": "contracts/ether-distribute.sol",
  "abi": [
    {
      "inputs": [],
      "stateMutability": "nonpayable",
      "type": "constructor"
    },
    {
      "anonymous": false,
      "inputs": [
        {
          "indexed": false,
          "internalType": "address",
          "name": "",
          "type": "address"
        },
        {
          "indexed": false,
          "internalType": "uint256",
          "name": "",
          "type": "uint256"
        }
      ],
      "name": "Distributed",
      "type": "event"
    },
    {
      "anonymous": false,
      "inputs": [
        {
          "indexed": false,
          "internalType": "address",
          "name": "",
          "type": "address"
        },
        {
          "indexed": false,
          "internalType": "uint256",
          "name": "",
          "type": "uint256"
        }
      ],
      "name": "FeeWithdrawn",
      "type": "event"
    },
    {
      "inputs": [
        {
          "internalType": "address[]",
          "name": "users",
          "type": "address[]"
        }
      ],
      "name": "distributeEth",
      "outputs": [],
      "stateMutability": "payable",
      "type": "function"
    },
    {
      "inputs": [],
      "name": "feeAmount",
      "outputs": [
        {
          "internalType": "uint256",
          "name": "",
          "type": "uint256"
        }
      ],
      "stateMutability": "view",
      "type": "function"
    },
    {
      "inputs": [],
      "name": "feeRate",
      "outputs": [
        {
          "internalType": "uint256",
          "name": "",
          "type": "uint256"
        }
      ],
      "stateMutability": "view",
      "type": "function"
    },
    {
      "inputs": [],
      "name": "getAdmin",
      "outputs": [
        {
          "internalType": "address",
          "name": "",
          "type": "address"
        }
      ],
      "stateMutability": "view",
      "type": "function"
    },
    {
      "inputs": [],
      "name": "withdrawFees",
      "outputs": [],
      "stateMutability": "payable",
      "type": "function"
    }
  ],
  "bytecode": "0x6080604052600a60025534801561001557600080fd5b50336000806101000a81548173ffffffffffffffffffffffffffffffffffffffff021916908373ffffffffffffffffffffffffffffffffffffffff160217905550610ae1806100656000396000f3fe60806040526004361061004a5760003560e01c8063476343ee1461004f57806369e15404146100595780636af94f69146100845780636e9960c3146100a0578063978bbdb9146100cb575b600080fd5b6100576100f6565b005b34801561006557600080fd5b5061006e610279565b60405161007b919061082f565b60405180910390f35b61009e6004803603810190610099919061057b565b61027f565b005b3480156100ac57600080fd5b506100b5610498565b6040516100c29190610742565b60405180910390f35b3480156100d757600080fd5b506100e06104c1565b6040516100ed919061082f565b60405180910390f35b60008054906101000a900473ffffffffffffffffffffffffffffffffffffffff1673ffffffffffffffffffffffffffffffffffffffff163373ffffffffffffffffffffffffffffffffffffffff1614610184576040517f08c379a000000000000000000000000000000000000000000000000000000000815260040161017b906107af565b60405180910390fd5b60003390506000808273ffffffffffffffffffffffffffffffffffffffff166001546040516101b29061072d565b60006040518083038185875af1925050503d80600081146101ef576040519150601f19603f3d011682016040523d82523d6000602084013e6101f4565b606091505b509150915081610239576040517f08c379a0000000000000000000000000000000000000000000000000000000008152600401610230906107cf565b60405180910390fd5b7f78473f3f373f7673597f4f0fa5873cb4d375fea6d4339ad6b56dbd411513cb3f3360015460405161026c929190610786565b60405180910390a1505050565b60015481565b6000349050600081116102c7576040517f08c379a00000000000000000000000000000000000000000000000000000000081526004016102be9061080f565b60405180910390fd5b60006102f26127106102e4600254856104c790919063ffffffff16565b6104dd90919063ffffffff16565b9050600081836103029190610947565b9050600061031c86869050836104dd90919063ffffffff16565b905060005b8686905081101561047b576000878783818110610367577f4e487b7100000000000000000000000000000000000000000000000000000000600052603260045260246000fd5b905060200201602081019061037c9190610552565b90506000808273ffffffffffffffffffffffffffffffffffffffff16856040516103a59061072d565b60006040518083038185875af1925050503d80600081146103e2576040519150601f19603f3d011682016040523d82523d6000602084013e6103e7565b606091505b50915091508161042c576040517f08c379a0000000000000000000000000000000000000000000000000000000008152600401610423906107ef565b60405180910390fd5b7fb649c98f58055c520df0dcb5709eff2e931217ff2fb1e21376130d31bbb1c0af838660405161045d92919061075d565b60405180910390a15050508080610473906109ed565b915050610321565b508260015461048a9190610866565b600181905550505050505050565b60008060009054906101000a900473ffffffffffffffffffffffffffffffffffffffff16905090565b60025481565b600081836104d591906108ed565b905092915050565b600081836104eb91906108bc565b905092915050565b60008135905061050281610a94565b92915050565b60008083601f84011261051a57600080fd5b8235905067ffffffffffffffff81111561053357600080fd5b60208301915083602082028301111561054b57600080fd5b9250929050565b60006020828403121561056457600080fd5b6000610572848285016104f3565b91505092915050565b6000806020838503121561058e57600080fd5b600083013567ffffffffffffffff8111156105a857600080fd5b6105b485828601610508565b92509250509250929050565b6105c9816109b7565b82525050565b6105d88161097b565b82525050565b60006105eb600c83610855565b91507f556e617574686f72697a656400000000000000000000000000000000000000006000830152602082019050919050565b600061062b601683610855565b91507f4661696c656420746f20776974686472617720666565000000000000000000006000830152602082019050919050565b600061066b601483610855565b91507f4661696c656420746f2073656e642045746865720000000000000000000000006000830152602082019050919050565b60006106ab60008361084a565b9150600082019050919050565b60006106c5602a83610855565b91507f496e737566666369656e742065746865722062616c616e636520666f7220646960008301527f73747269627574696f6e000000000000000000000000000000000000000000006020830152604082019050919050565b610727816109ad565b82525050565b60006107388261069e565b9150819050919050565b600060208201905061075760008301846105cf565b92915050565b600060408201905061077260008301856105c0565b61077f602083018461071e565b9392505050565b600060408201905061079b60008301856105cf565b6107a8602083018461071e565b9392505050565b600060208201905081810360008301526107c8816105de565b9050919050565b600060208201905081810360008301526107e88161061e565b9050919050565b600060208201905081810360008301526108088161065e565b9050919050565b60006020820190508181036000830152610828816106b8565b9050919050565b6000602082019050610844600083018461071e565b92915050565b600081905092915050565b600082825260208201905092915050565b6000610871826109ad565b915061087c836109ad565b9250827fffffffffffffffffffffffffffffffffffffffffffffffffffffffffffffffff038211156108b1576108b0610a36565b5b828201905092915050565b60006108c7826109ad565b91506108d2836109ad565b9250826108e2576108e1610a65565b5b828204905092915050565b60006108f8826109ad565b9150610903836109ad565b9250817fffffffffffffffffffffffffffffffffffffffffffffffffffffffffffffffff048311821515161561093c5761093b610a36565b5b828202905092915050565b6000610952826109ad565b915061095d836109ad565b9250828210156109705761096f610a36565b5b828203905092915050565b60006109868261098d565b9050919050565b600073ffffffffffffffffffffffffffffffffffffffff82169050919050565b6000819050919050565b60006109c2826109c9565b9050919050565b60006109d4826109db565b9050919050565b60006109e68261098d565b9050919050565b60006109f8826109ad565b91507fffffffffffffffffffffffffffffffffffffffffffffffffffffffffffffffff821415610a2b57610a2a610a36565b5b600182019050919050565b7f4e487b7100000000000000000000000000000000000000000000000000000000600052601160045260246000fd5b7f4e487b7100000000000000000000000000000000000000000000000000000000600052601260045260246000fd5b610a9d8161097b565b8114610aa857600080fd5b5056fea2646970667358221220eee1490723f22a44a7ee7bc3c283e68aee420b7c86d3b55825695d75d7a785ea64736f6c63430008000033",
  "linkReferences": {},
  "deployedLinkReferences": {}
}