{
  "_format": "hh-sol-artifact-1",
  "contractName": "EtherDistribute",
  "sourceName": "contracts/ether-distribute.sol",
  "abi": [
    {
      "inputs": [],
      "stateMutability": "nonpayable",
      "type": "constructor"
    },
    {
      "anonymous": false,
      "inputs": [
        {
          "indexed": false,
          "internalType": "address",
          "name": "",
          "type": "address"
        },
        {
          "indexed": false,
          "internalType": "uint256",
          "name": "",
          "type": "uint256"
        }
      ],
      "name": "Distributed",
      "type": "event"
    },
    {
      "anonymous": false,
      "inputs": [
        {
          "indexed": false,
          "internalType": "address",
          "name": "",
          "type": "address"
        },
        {
          "indexed": false,
          "internalType": "uint256",
          "name": "",
          "type": "uint256"
        }
      ],
      "name": "Received",
      "type": "event"
    },
    {
      "anonymous": false,
      "inputs": [
        {
          "indexed": false,
          "internalType": "address",
          "name": "",
          "type": "address"
        },
        {
          "indexed": false,
          "internalType": "uint256",
          "name": "",
          "type": "uint256"
        }
      ],
      "name": "UserAdded",
      "type": "event"
    },
    {
      "inputs": [
        {
          "internalType": "address",
          "name": "newUser",
          "type": "address"
        }
      ],
      "name": "addUser",
      "outputs": [],
      "stateMutability": "nonpayable",
      "type": "function"
    },
    {
      "inputs": [
        {
          "internalType": "uint256",
          "name": "ethDistAmount",
          "type": "uint256"
        }
      ],
      "name": "distributeEth",
      "outputs": [],
      "stateMutability": "payable",
      "type": "function"
    },
    {
      "inputs": [],
      "name": "ethAmount",
      "outputs": [
        {
          "internalType": "uint256",
          "name": "",
          "type": "uint256"
        }
      ],
      "stateMutability": "view",
      "type": "function"
    },
    {
      "inputs": [],
      "name": "feeAmount",
      "outputs": [
        {
          "internalType": "uint256",
          "name": "",
          "type": "uint256"
        }
      ],
      "stateMutability": "view",
      "type": "function"
    },
    {
      "inputs": [],
      "name": "feeRate",
      "outputs": [
        {
          "internalType": "uint256",
          "name": "",
          "type": "uint256"
        }
      ],
      "stateMutability": "view",
      "type": "function"
    },
    {
      "inputs": [],
      "name": "getAdmin",
      "outputs": [
        {
          "internalType": "address",
          "name": "",
          "type": "address"
        }
      ],
      "stateMutability": "view",
      "type": "function"
    },
    {
      "stateMutability": "payable",
      "type": "receive"
    }
  ],
  "bytecode": "0x6080604052600a60035534801561001557600080fd5b50336000806101000a81548173ffffffffffffffffffffffffffffffffffffffff021916908373ffffffffffffffffffffffffffffffffffffffff1602179055506109ee806100656000396000f3fe6080604052600436106100595760003560e01c8063421b2d8b146100b957806369e15404146100e25780636e9960c31461010d5780637497020014610138578063978bbdb914610154578063c98166c01461017f576100b4565b366100b457610073346001546101aa90919063ffffffff16565b6001819055507f88a5966d370b9919b20f3e2c13ff65706f196a4e32cc2c12bf57088f8852587433346040516100aa9291906106bc565b60405180910390a1005b600080fd5b3480156100c557600080fd5b506100e060048036038101906100db9190610524565b6101c0565b005b3480156100ee57600080fd5b506100f7610264565b6040516101049190610725565b60405180910390f35b34801561011957600080fd5b5061012261026a565b60405161012f9190610678565b60405180910390f35b610152600480360381019061014d919061054d565b610293565b005b34801561016057600080fd5b506101696104c2565b6040516101769190610725565b60405180910390f35b34801561018b57600080fd5b506101946104c8565b6040516101a19190610725565b60405180910390f35b600081836101b8919061075c565b905092915050565b6004819080600181540180825580915050600190039060005260206000200160009091909190916101000a81548173ffffffffffffffffffffffffffffffffffffffff021916908373ffffffffffffffffffffffffffffffffffffffff1602179055507f25ddd06f7eaeb83bb3fbcaa231d4b89e2d7bcd781043983661920061e755a7f0816004805490506040516102599291906106bc565b60405180910390a150565b60025481565b60008060009054906101000a900473ffffffffffffffffffffffffffffffffffffffff16905090565b8060015410156102d8576040517f08c379a00000000000000000000000000000000000000000000000000000000081526004016102cf90610705565b60405180910390fd5b60006103036127106102f5600354856104ce90919063ffffffff16565b6104e490919063ffffffff16565b905080600254610313919061075c565b60028190555060008183610327919061083d565b90506000610343600480549050836104e490919063ffffffff16565b905060005b6004805490508110156104bb57600060048281548110610391577f4e487b7100000000000000000000000000000000000000000000000000000000600052603260045260246000fd5b9060005260206000200160009054906101000a900473ffffffffffffffffffffffffffffffffffffffff1690506000808273ffffffffffffffffffffffffffffffffffffffff16856040516103e590610663565b60006040518083038185875af1925050503d8060008114610422576040519150601f19603f3d011682016040523d82523d6000602084013e610427565b606091505b50915091508161046c576040517f08c379a0000000000000000000000000000000000000000000000000000000008152600401610463906106e5565b60405180910390fd5b7fb649c98f58055c520df0dcb5709eff2e931217ff2fb1e21376130d31bbb1c0af838660405161049d929190610693565b60405180910390a150505080806104b3906108e3565b915050610348565b5050505050565b60035481565b60015481565b600081836104dc91906107e3565b905092915050565b600081836104f291906107b2565b905092915050565b6000813590506105098161098a565b92915050565b60008135905061051e816109a1565b92915050565b60006020828403121561053657600080fd5b6000610544848285016104fa565b91505092915050565b60006020828403121561055f57600080fd5b600061056d8482850161050f565b91505092915050565b61057f816108ad565b82525050565b61058e81610871565b82525050565b60006105a160148361074b565b91507f4661696c656420746f2073656e642045746865720000000000000000000000006000830152602082019050919050565b60006105e1600083610740565b9150600082019050919050565b60006105fb602a8361074b565b91507f496e737566666369656e742065746865722062616c616e636520666f7220646960008301527f73747269627574696f6e000000000000000000000000000000000000000000006020830152604082019050919050565b61065d816108a3565b82525050565b600061066e826105d4565b9150819050919050565b600060208201905061068d6000830184610585565b92915050565b60006040820190506106a86000830185610576565b6106b56020830184610654565b9392505050565b60006040820190506106d16000830185610585565b6106de6020830184610654565b9392505050565b600060208201905081810360008301526106fe81610594565b9050919050565b6000602082019050818103600083015261071e816105ee565b9050919050565b600060208201905061073a6000830184610654565b92915050565b600081905092915050565b600082825260208201905092915050565b6000610767826108a3565b9150610772836108a3565b9250827fffffffffffffffffffffffffffffffffffffffffffffffffffffffffffffffff038211156107a7576107a661092c565b5b828201905092915050565b60006107bd826108a3565b91506107c8836108a3565b9250826107d8576107d761095b565b5b828204905092915050565b60006107ee826108a3565b91506107f9836108a3565b9250817fffffffffffffffffffffffffffffffffffffffffffffffffffffffffffffffff04831182151516156108325761083161092c565b5b828202905092915050565b6000610848826108a3565b9150610853836108a3565b9250828210156108665761086561092c565b5b828203905092915050565b600061087c82610883565b9050919050565b600073ffffffffffffffffffffffffffffffffffffffff82169050919050565b6000819050919050565b60006108b8826108bf565b9050919050565b60006108ca826108d1565b9050919050565b60006108dc82610883565b9050919050565b60006108ee826108a3565b91507fffffffffffffffffffffffffffffffffffffffffffffffffffffffffffffffff8214156109215761092061092c565b5b600182019050919050565b7f4e487b7100000000000000000000000000000000000000000000000000000000600052601160045260246000fd5b7f4e487b7100000000000000000000000000000000000000000000000000000000600052601260045260246000fd5b61099381610871565b811461099e57600080fd5b50565b6109aa816108a3565b81146109b557600080fd5b5056fea2646970667358221220de0e5ca12ee6371fcf9a797acc1d02c16dd57d1bc57eb54e1b48fbe5a4fec69e64736f6c63430008000033",
  "linkReferences": {},
  "deployedLinkReferences": {}
}