{
  "_format": "hh-sol-artifact-1",
  "contractName": "EtherDistribute",
  "sourceName": "contracts/ether-distribute.sol",
  "abi": [
    {
      "inputs": [],
      "stateMutability": "nonpayable",
      "type": "constructor"
    },
    {
      "anonymous": false,
      "inputs": [
        {
          "indexed": false,
          "internalType": "address",
          "name": "",
          "type": "address"
        },
        {
          "indexed": false,
          "internalType": "uint256",
          "name": "",
          "type": "uint256"
        }
      ],
      "name": "Received",
      "type": "event"
    },
    {
      "inputs": [],
      "name": "ethAmount",
      "outputs": [
        {
          "internalType": "uint256",
          "name": "",
          "type": "uint256"
        }
      ],
      "stateMutability": "view",
      "type": "function"
    },
    {
      "inputs": [],
      "name": "feeAmount",
      "outputs": [
        {
          "internalType": "uint256",
          "name": "",
          "type": "uint256"
        }
      ],
      "stateMutability": "view",
      "type": "function"
    },
    {
      "inputs": [],
      "name": "getAdmin",
      "outputs": [
        {
          "internalType": "address",
          "name": "",
          "type": "address"
        }
      ],
      "stateMutability": "view",
      "type": "function"
    },
    {
      "stateMutability": "payable",
      "type": "receive"
    }
  ],
  "bytecode": "0x608060405234801561001057600080fd5b50336000806101000a81548173ffffffffffffffffffffffffffffffffffffffff021916908373ffffffffffffffffffffffffffffffffffffffff1602179055506102d8806100606000396000f3fe6080604052600436106100385760003560e01c806369e15404146100985780636e9960c3146100c3578063c98166c0146100ee57610093565b36610093576100523460015461011990919063ffffffff16565b6001819055507f88a5966d370b9919b20f3e2c13ff65706f196a4e32cc2c12bf57088f88525874333460405161008992919061019d565b60405180910390a1005b600080fd5b3480156100a457600080fd5b506100ad61012f565b6040516100ba91906101c6565b60405180910390f35b3480156100cf57600080fd5b506100d8610135565b6040516100e59190610182565b60405180910390f35b3480156100fa57600080fd5b5061010361015e565b60405161011091906101c6565b60405180910390f35b6000818361012791906101e1565b905092915050565b60025481565b60008060009054906101000a900473ffffffffffffffffffffffffffffffffffffffff16905090565b60015481565b61016d81610237565b82525050565b61017c81610269565b82525050565b60006020820190506101976000830184610164565b92915050565b60006040820190506101b26000830185610164565b6101bf6020830184610173565b9392505050565b60006020820190506101db6000830184610173565b92915050565b60006101ec82610269565b91506101f783610269565b9250827fffffffffffffffffffffffffffffffffffffffffffffffffffffffffffffffff0382111561022c5761022b610273565b5b828201905092915050565b600061024282610249565b9050919050565b600073ffffffffffffffffffffffffffffffffffffffff82169050919050565b6000819050919050565b7f4e487b7100000000000000000000000000000000000000000000000000000000600052601160045260246000fdfea26469706673582212204ae0f5019190dd9bee15a17a485dd57a5c7daadfa3965a2f77cc376b0e6bf12d64736f6c63430008000033",
  "linkReferences": {},
  "deployedLinkReferences": {}
}