{
  "_format": "hh-sol-artifact-1",
  "contractName": "EtherDistribute",
  "sourceName": "contracts/ether-distribute.sol",
  "abi": [
    {
      "inputs": [],
      "stateMutability": "nonpayable",
      "type": "constructor"
    },
    {
      "anonymous": false,
      "inputs": [
        {
          "indexed": false,
          "internalType": "address",
          "name": "",
          "type": "address"
        },
        {
          "indexed": false,
          "internalType": "uint256",
          "name": "",
          "type": "uint256"
        }
      ],
      "name": "Distributed",
      "type": "event"
    },
    {
      "anonymous": false,
      "inputs": [
        {
          "indexed": false,
          "internalType": "address",
          "name": "",
          "type": "address"
        },
        {
          "indexed": false,
          "internalType": "uint256",
          "name": "",
          "type": "uint256"
        }
      ],
      "name": "FeeWithdrawn",
      "type": "event"
    },
    {
      "inputs": [],
      "name": "admin",
      "outputs": [
        {
          "internalType": "address",
          "name": "",
          "type": "address"
        }
      ],
      "stateMutability": "view",
      "type": "function"
    },
    {
      "inputs": [
        {
          "internalType": "address[]",
          "name": "users",
          "type": "address[]"
        }
      ],
      "name": "distributeEth",
      "outputs": [],
      "stateMutability": "payable",
      "type": "function"
    },
    {
      "inputs": [],
      "name": "feeAmount",
      "outputs": [
        {
          "internalType": "uint256",
          "name": "",
          "type": "uint256"
        }
      ],
      "stateMutability": "view",
      "type": "function"
    },
    {
      "inputs": [],
      "name": "feeRate",
      "outputs": [
        {
          "internalType": "uint256",
          "name": "",
          "type": "uint256"
        }
      ],
      "stateMutability": "view",
      "type": "function"
    },
    {
      "inputs": [],
      "name": "withdrawFees",
      "outputs": [],
      "stateMutability": "payable",
      "type": "function"
    }
  ],
  "bytecode": "0x6080604052600a60025534801561001557600080fd5b50336000806101000a81548173ffffffffffffffffffffffffffffffffffffffff021916908373ffffffffffffffffffffffffffffffffffffffff160217905550610adc806100656000396000f3fe60806040526004361061004a5760003560e01c8063476343ee1461004f57806369e15404146100595780636af94f6914610084578063978bbdb9146100a0578063f851a440146100cb575b600080fd5b6100576100f6565b005b34801561006557600080fd5b5061006e610279565b60405161007b919061082a565b60405180910390f35b61009e60048036038101906100999190610576565b61027f565b005b3480156100ac57600080fd5b506100b5610498565b6040516100c2919061082a565b60405180910390f35b3480156100d757600080fd5b506100e061049e565b6040516100ed919061073d565b60405180910390f35b60008054906101000a900473ffffffffffffffffffffffffffffffffffffffff1673ffffffffffffffffffffffffffffffffffffffff163373ffffffffffffffffffffffffffffffffffffffff1614610184576040517f08c379a000000000000000000000000000000000000000000000000000000000815260040161017b906107aa565b60405180910390fd5b60003390506000808273ffffffffffffffffffffffffffffffffffffffff166001546040516101b290610728565b60006040518083038185875af1925050503d80600081146101ef576040519150601f19603f3d011682016040523d82523d6000602084013e6101f4565b606091505b509150915081610239576040517f08c379a0000000000000000000000000000000000000000000000000000000008152600401610230906107ca565b60405180910390fd5b7f78473f3f373f7673597f4f0fa5873cb4d375fea6d4339ad6b56dbd411513cb3f3360015460405161026c929190610781565b60405180910390a1505050565b60015481565b6000349050600081116102c7576040517f08c379a00000000000000000000000000000000000000000000000000000000081526004016102be9061080a565b60405180910390fd5b60006102f26127106102e4600254856104c290919063ffffffff16565b6104d890919063ffffffff16565b9050600081836103029190610942565b9050600061031c86869050836104d890919063ffffffff16565b905060005b8686905081101561047b576000878783818110610367577f4e487b7100000000000000000000000000000000000000000000000000000000600052603260045260246000fd5b905060200201602081019061037c919061054d565b90506000808273ffffffffffffffffffffffffffffffffffffffff16856040516103a590610728565b60006040518083038185875af1925050503d80600081146103e2576040519150601f19603f3d011682016040523d82523d6000602084013e6103e7565b606091505b50915091508161042c576040517f08c379a0000000000000000000000000000000000000000000000000000000008152600401610423906107ea565b60405180910390fd5b7fb649c98f58055c520df0dcb5709eff2e931217ff2fb1e21376130d31bbb1c0af838660405161045d929190610758565b60405180910390a15050508080610473906109e8565b915050610321565b508260015461048a9190610861565b600181905550505050505050565b60025481565b60008054906101000a900473ffffffffffffffffffffffffffffffffffffffff1681565b600081836104d091906108e8565b905092915050565b600081836104e691906108b7565b905092915050565b6000813590506104fd81610a8f565b92915050565b60008083601f84011261051557600080fd5b8235905067ffffffffffffffff81111561052e57600080fd5b60208301915083602082028301111561054657600080fd5b9250929050565b60006020828403121561055f57600080fd5b600061056d848285016104ee565b91505092915050565b6000806020838503121561058957600080fd5b600083013567ffffffffffffffff8111156105a357600080fd5b6105af85828601610503565b92509250509250929050565b6105c4816109b2565b82525050565b6105d381610976565b82525050565b60006105e6600c83610850565b91507f556e617574686f72697a656400000000000000000000000000000000000000006000830152602082019050919050565b6000610626601683610850565b91507f4661696c656420746f20776974686472617720666565000000000000000000006000830152602082019050919050565b6000610666601483610850565b91507f4661696c656420746f2073656e642045746865720000000000000000000000006000830152602082019050919050565b60006106a6600083610845565b9150600082019050919050565b60006106c0602a83610850565b91507f496e737566666369656e742065746865722062616c616e636520666f7220646960008301527f73747269627574696f6e000000000000000000000000000000000000000000006020830152604082019050919050565b610722816109a8565b82525050565b600061073382610699565b9150819050919050565b600060208201905061075260008301846105ca565b92915050565b600060408201905061076d60008301856105bb565b61077a6020830184610719565b9392505050565b600060408201905061079660008301856105ca565b6107a36020830184610719565b9392505050565b600060208201905081810360008301526107c3816105d9565b9050919050565b600060208201905081810360008301526107e381610619565b9050919050565b6000602082019050818103600083015261080381610659565b9050919050565b60006020820190508181036000830152610823816106b3565b9050919050565b600060208201905061083f6000830184610719565b92915050565b600081905092915050565b600082825260208201905092915050565b600061086c826109a8565b9150610877836109a8565b9250827fffffffffffffffffffffffffffffffffffffffffffffffffffffffffffffffff038211156108ac576108ab610a31565b5b828201905092915050565b60006108c2826109a8565b91506108cd836109a8565b9250826108dd576108dc610a60565b5b828204905092915050565b60006108f3826109a8565b91506108fe836109a8565b9250817fffffffffffffffffffffffffffffffffffffffffffffffffffffffffffffffff048311821515161561093757610936610a31565b5b828202905092915050565b600061094d826109a8565b9150610958836109a8565b92508282101561096b5761096a610a31565b5b828203905092915050565b600061098182610988565b9050919050565b600073ffffffffffffffffffffffffffffffffffffffff82169050919050565b6000819050919050565b60006109bd826109c4565b9050919050565b60006109cf826109d6565b9050919050565b60006109e182610988565b9050919050565b60006109f3826109a8565b91507fffffffffffffffffffffffffffffffffffffffffffffffffffffffffffffffff821415610a2657610a25610a31565b5b600182019050919050565b7f4e487b7100000000000000000000000000000000000000000000000000000000600052601160045260246000fd5b7f4e487b7100000000000000000000000000000000000000000000000000000000600052601260045260246000fd5b610a9881610976565b8114610aa357600080fd5b5056fea26469706673582212203b3b99a9c73dcafe0a81e2b48c2be6465c729d47c4efa050fd806f070340a16a64736f6c63430008000033",
  "linkReferences": {},
  "deployedLinkReferences": {}
}