{
  "_format": "hh-sol-artifact-1",
  "contractName": "EtherDistribute",
  "sourceName": "contracts/ether-distribute.sol",
  "abi": [
    {
      "inputs": [],
      "stateMutability": "nonpayable",
      "type": "constructor"
    },
    {
      "anonymous": false,
      "inputs": [
        {
          "indexed": false,
          "internalType": "address",
          "name": "",
          "type": "address"
        },
        {
          "indexed": false,
          "internalType": "uint256",
          "name": "",
          "type": "uint256"
        }
      ],
      "name": "Received",
      "type": "event"
    },
    {
      "anonymous": false,
      "inputs": [
        {
          "indexed": false,
          "internalType": "address",
          "name": "",
          "type": "address"
        },
        {
          "indexed": false,
          "internalType": "uint256",
          "name": "",
          "type": "uint256"
        }
      ],
      "name": "UserAdded",
      "type": "event"
    },
    {
      "inputs": [
        {
          "internalType": "address",
          "name": "newUser",
          "type": "address"
        }
      ],
      "name": "addUser",
      "outputs": [],
      "stateMutability": "nonpayable",
      "type": "function"
    },
    {
      "inputs": [],
      "name": "ethAmount",
      "outputs": [
        {
          "internalType": "uint256",
          "name": "",
          "type": "uint256"
        }
      ],
      "stateMutability": "view",
      "type": "function"
    },
    {
      "inputs": [],
      "name": "feeAmount",
      "outputs": [
        {
          "internalType": "uint256",
          "name": "",
          "type": "uint256"
        }
      ],
      "stateMutability": "view",
      "type": "function"
    },
    {
      "inputs": [],
      "name": "getAdmin",
      "outputs": [
        {
          "internalType": "address",
          "name": "",
          "type": "address"
        }
      ],
      "stateMutability": "view",
      "type": "function"
    },
    {
      "stateMutability": "payable",
      "type": "receive"
    }
  ],
  "bytecode": "0x608060405234801561001057600080fd5b50336000806101000a81548173ffffffffffffffffffffffffffffffffffffffff021916908373ffffffffffffffffffffffffffffffffffffffff160217905550610405806100606000396000f3fe6080604052600436106100435760003560e01c8063421b2d8b146100a357806369e15404146100cc5780636e9960c3146100f7578063c98166c0146101225761009e565b3661009e5761005d3460015461014d90919063ffffffff16565b6001819055507f88a5966d370b9919b20f3e2c13ff65706f196a4e32cc2c12bf57088f8852587433346040516100949291906102b3565b60405180910390a1005b600080fd5b3480156100af57600080fd5b506100ca60048036038101906100c59190610251565b610163565b005b3480156100d857600080fd5b506100e1610207565b6040516100ee91906102dc565b60405180910390f35b34801561010357600080fd5b5061010c61020d565b6040516101199190610298565b60405180910390f35b34801561012e57600080fd5b50610137610236565b60405161014491906102dc565b60405180910390f35b6000818361015b91906102f7565b905092915050565b6003819080600181540180825580915050600190039060005260206000200160009091909190916101000a81548173ffffffffffffffffffffffffffffffffffffffff021916908373ffffffffffffffffffffffffffffffffffffffff1602179055507f25ddd06f7eaeb83bb3fbcaa231d4b89e2d7bcd781043983661920061e755a7f0816003805490506040516101fc9291906102b3565b60405180910390a150565b60025481565b60008060009054906101000a900473ffffffffffffffffffffffffffffffffffffffff16905090565b60015481565b60008135905061024b816103b8565b92915050565b60006020828403121561026357600080fd5b60006102718482850161023c565b91505092915050565b6102838161034d565b82525050565b6102928161037f565b82525050565b60006020820190506102ad600083018461027a565b92915050565b60006040820190506102c8600083018561027a565b6102d56020830184610289565b9392505050565b60006020820190506102f16000830184610289565b92915050565b60006103028261037f565b915061030d8361037f565b9250827fffffffffffffffffffffffffffffffffffffffffffffffffffffffffffffffff0382111561034257610341610389565b5b828201905092915050565b60006103588261035f565b9050919050565b600073ffffffffffffffffffffffffffffffffffffffff82169050919050565b6000819050919050565b7f4e487b7100000000000000000000000000000000000000000000000000000000600052601160045260246000fd5b6103c18161034d565b81146103cc57600080fd5b5056fea2646970667358221220a4a933415dc9c5ba781763f5d00f6b06e757c9fcfc4a6540ac422f8f52b9f4fa64736f6c63430008000033",
  "linkReferences": {},
  "deployedLinkReferences": {}
}