{
  "_format": "hh-sol-artifact-1",
  "contractName": "EtherDistribute",
  "sourceName": "contracts/ether-distribute.sol",
  "abi": [
    {
      "inputs": [],
      "stateMutability": "nonpayable",
      "type": "constructor"
    },
    {
      "anonymous": false,
      "inputs": [
        {
          "indexed": false,
          "internalType": "address",
          "name": "",
          "type": "address"
        },
        {
          "indexed": false,
          "internalType": "uint256",
          "name": "",
          "type": "uint256"
        }
      ],
      "name": "Distributed",
      "type": "event"
    },
    {
      "anonymous": false,
      "inputs": [
        {
          "indexed": false,
          "internalType": "address",
          "name": "",
          "type": "address"
        },
        {
          "indexed": false,
          "internalType": "uint256",
          "name": "",
          "type": "uint256"
        }
      ],
      "name": "FeeWithdrawn",
      "type": "event"
    },
    {
      "anonymous": false,
      "inputs": [
        {
          "indexed": false,
          "internalType": "address",
          "name": "",
          "type": "address"
        },
        {
          "indexed": false,
          "internalType": "uint256",
          "name": "",
          "type": "uint256"
        }
      ],
      "name": "Received",
      "type": "event"
    },
    {
      "anonymous": false,
      "inputs": [
        {
          "indexed": false,
          "internalType": "address",
          "name": "",
          "type": "address"
        },
        {
          "indexed": false,
          "internalType": "uint256",
          "name": "",
          "type": "uint256"
        }
      ],
      "name": "UserAdded",
      "type": "event"
    },
    {
      "inputs": [
        {
          "internalType": "address",
          "name": "newUser",
          "type": "address"
        }
      ],
      "name": "addUser",
      "outputs": [],
      "stateMutability": "nonpayable",
      "type": "function"
    },
    {
      "inputs": [
        {
          "internalType": "uint256",
          "name": "ethDistAmount",
          "type": "uint256"
        }
      ],
      "name": "distributeEth",
      "outputs": [],
      "stateMutability": "payable",
      "type": "function"
    },
    {
      "inputs": [],
      "name": "ethAmount",
      "outputs": [
        {
          "internalType": "uint256",
          "name": "",
          "type": "uint256"
        }
      ],
      "stateMutability": "view",
      "type": "function"
    },
    {
      "inputs": [],
      "name": "feeAmount",
      "outputs": [
        {
          "internalType": "uint256",
          "name": "",
          "type": "uint256"
        }
      ],
      "stateMutability": "view",
      "type": "function"
    },
    {
      "inputs": [],
      "name": "feeRate",
      "outputs": [
        {
          "internalType": "uint256",
          "name": "",
          "type": "uint256"
        }
      ],
      "stateMutability": "view",
      "type": "function"
    },
    {
      "inputs": [],
      "name": "getAdmin",
      "outputs": [
        {
          "internalType": "address",
          "name": "",
          "type": "address"
        }
      ],
      "stateMutability": "view",
      "type": "function"
    },
    {
      "inputs": [],
      "name": "withdrawFees",
      "outputs": [],
      "stateMutability": "payable",
      "type": "function"
    },
    {
      "stateMutability": "payable",
      "type": "receive"
    }
  ],
  "bytecode": "0x6080604052600a60035534801561001557600080fd5b50336000806101000a81548173ffffffffffffffffffffffffffffffffffffffff021916908373ffffffffffffffffffffffffffffffffffffffff160217905550610c56806100656000396000f3fe6080604052600436106100745760003560e01c80636e9960c31161004e5780636e9960c314610132578063749702001461015d578063978bbdb914610179578063c98166c0146101a4576100cf565b8063421b2d8b146100d4578063476343ee146100fd57806369e1540414610107576100cf565b366100cf5761008e346001546101cf90919063ffffffff16565b6001819055507f88a5966d370b9919b20f3e2c13ff65706f196a4e32cc2c12bf57088f8852587433346040516100c59291906108e4565b60405180910390a1005b600080fd5b3480156100e057600080fd5b506100fb60048036038101906100f691906106cc565b6101e5565b005b610105610289565b005b34801561011357600080fd5b5061011c61040c565b604051610129919061098d565b60405180910390f35b34801561013e57600080fd5b50610147610412565b60405161015491906108a0565b60405180910390f35b610177600480360381019061017291906106f5565b61043b565b005b34801561018557600080fd5b5061018e61066a565b60405161019b919061098d565b60405180910390f35b3480156101b057600080fd5b506101b9610670565b6040516101c6919061098d565b60405180910390f35b600081836101dd91906109c4565b905092915050565b6004819080600181540180825580915050600190039060005260206000200160009091909190916101000a81548173ffffffffffffffffffffffffffffffffffffffff021916908373ffffffffffffffffffffffffffffffffffffffff1602179055507f25ddd06f7eaeb83bb3fbcaa231d4b89e2d7bcd781043983661920061e755a7f08160048054905060405161027e9291906108e4565b60405180910390a150565b60008054906101000a900473ffffffffffffffffffffffffffffffffffffffff1673ffffffffffffffffffffffffffffffffffffffff163373ffffffffffffffffffffffffffffffffffffffff1614610317576040517f08c379a000000000000000000000000000000000000000000000000000000000815260040161030e9061090d565b60405180910390fd5b60003390506000808273ffffffffffffffffffffffffffffffffffffffff166002546040516103459061088b565b60006040518083038185875af1925050503d8060008114610382576040519150601f19603f3d011682016040523d82523d6000602084013e610387565b606091505b5091509150816103cc576040517f08c379a00000000000000000000000000000000000000000000000000000000081526004016103c39061092d565b60405180910390fd5b7f78473f3f373f7673597f4f0fa5873cb4d375fea6d4339ad6b56dbd411513cb3f336002546040516103ff9291906108e4565b60405180910390a1505050565b60025481565b60008060009054906101000a900473ffffffffffffffffffffffffffffffffffffffff16905090565b806001541015610480576040517f08c379a00000000000000000000000000000000000000000000000000000000081526004016104779061096d565b60405180910390fd5b60006104ab61271061049d6003548561067690919063ffffffff16565b61068c90919063ffffffff16565b9050806002546104bb91906109c4565b600281905550600081836104cf9190610aa5565b905060006104eb6004805490508361068c90919063ffffffff16565b905060005b60048054905081101561066357600060048281548110610539577f4e487b7100000000000000000000000000000000000000000000000000000000600052603260045260246000fd5b9060005260206000200160009054906101000a900473ffffffffffffffffffffffffffffffffffffffff1690506000808273ffffffffffffffffffffffffffffffffffffffff168560405161058d9061088b565b60006040518083038185875af1925050503d80600081146105ca576040519150601f19603f3d011682016040523d82523d6000602084013e6105cf565b606091505b509150915081610614576040517f08c379a000000000000000000000000000000000000000000000000000000000815260040161060b9061094d565b60405180910390fd5b7fb649c98f58055c520df0dcb5709eff2e931217ff2fb1e21376130d31bbb1c0af83866040516106459291906108bb565b60405180910390a1505050808061065b90610b4b565b9150506104f0565b5050505050565b60035481565b60015481565b600081836106849190610a4b565b905092915050565b6000818361069a9190610a1a565b905092915050565b6000813590506106b181610bf2565b92915050565b6000813590506106c681610c09565b92915050565b6000602082840312156106de57600080fd5b60006106ec848285016106a2565b91505092915050565b60006020828403121561070757600080fd5b6000610715848285016106b7565b91505092915050565b61072781610b15565b82525050565b61073681610ad9565b82525050565b6000610749600c836109b3565b91507f556e617574686f72697a656400000000000000000000000000000000000000006000830152602082019050919050565b60006107896016836109b3565b91507f4661696c656420746f20776974686472617720666565000000000000000000006000830152602082019050919050565b60006107c96014836109b3565b91507f4661696c656420746f2073656e642045746865720000000000000000000000006000830152602082019050919050565b60006108096000836109a8565b9150600082019050919050565b6000610823602a836109b3565b91507f496e737566666369656e742065746865722062616c616e636520666f7220646960008301527f73747269627574696f6e000000000000000000000000000000000000000000006020830152604082019050919050565b61088581610b0b565b82525050565b6000610896826107fc565b9150819050919050565b60006020820190506108b5600083018461072d565b92915050565b60006040820190506108d0600083018561071e565b6108dd602083018461087c565b9392505050565b60006040820190506108f9600083018561072d565b610906602083018461087c565b9392505050565b600060208201905081810360008301526109268161073c565b9050919050565b600060208201905081810360008301526109468161077c565b9050919050565b60006020820190508181036000830152610966816107bc565b9050919050565b6000602082019050818103600083015261098681610816565b9050919050565b60006020820190506109a2600083018461087c565b92915050565b600081905092915050565b600082825260208201905092915050565b60006109cf82610b0b565b91506109da83610b0b565b9250827fffffffffffffffffffffffffffffffffffffffffffffffffffffffffffffffff03821115610a0f57610a0e610b94565b5b828201905092915050565b6000610a2582610b0b565b9150610a3083610b0b565b925082610a4057610a3f610bc3565b5b828204905092915050565b6000610a5682610b0b565b9150610a6183610b0b565b9250817fffffffffffffffffffffffffffffffffffffffffffffffffffffffffffffffff0483118215151615610a9a57610a99610b94565b5b828202905092915050565b6000610ab082610b0b565b9150610abb83610b0b565b925082821015610ace57610acd610b94565b5b828203905092915050565b6000610ae482610aeb565b9050919050565b600073ffffffffffffffffffffffffffffffffffffffff82169050919050565b6000819050919050565b6000610b2082610b27565b9050919050565b6000610b3282610b39565b9050919050565b6000610b4482610aeb565b9050919050565b6000610b5682610b0b565b91507fffffffffffffffffffffffffffffffffffffffffffffffffffffffffffffffff821415610b8957610b88610b94565b5b600182019050919050565b7f4e487b7100000000000000000000000000000000000000000000000000000000600052601160045260246000fd5b7f4e487b7100000000000000000000000000000000000000000000000000000000600052601260045260246000fd5b610bfb81610ad9565b8114610c0657600080fd5b50565b610c1281610b0b565b8114610c1d57600080fd5b5056fea2646970667358221220d0781bf67b71fd9eefed44c0fbf8928f3cc77f9aa0fe7da79e96c45f7eeb74c664736f6c63430008000033",
  "linkReferences": {},
  "deployedLinkReferences": {}
}