{
  "_format": "hh-sol-artifact-1",
  "contractName": "EtherDistribute",
  "sourceName": "contracts/ether-distribute.sol",
  "abi": [
    {
      "inputs": [],
      "stateMutability": "nonpayable",
      "type": "constructor"
    },
    {
      "anonymous": false,
      "inputs": [
        {
          "indexed": false,
          "internalType": "address",
          "name": "",
          "type": "address"
        },
        {
          "indexed": false,
          "internalType": "uint256",
          "name": "",
          "type": "uint256"
        }
      ],
      "name": "Distributed",
      "type": "event"
    },
    {
      "anonymous": false,
      "inputs": [
        {
          "indexed": false,
          "internalType": "address",
          "name": "",
          "type": "address"
        },
        {
          "indexed": false,
          "internalType": "uint256",
          "name": "",
          "type": "uint256"
        }
      ],
      "name": "Received",
      "type": "event"
    },
    {
      "anonymous": false,
      "inputs": [
        {
          "indexed": false,
          "internalType": "address",
          "name": "",
          "type": "address"
        },
        {
          "indexed": false,
          "internalType": "uint256",
          "name": "",
          "type": "uint256"
        }
      ],
      "name": "UserAdded",
      "type": "event"
    },
    {
      "inputs": [
        {
          "internalType": "address",
          "name": "newUser",
          "type": "address"
        }
      ],
      "name": "addUser",
      "outputs": [],
      "stateMutability": "nonpayable",
      "type": "function"
    },
    {
      "inputs": [
        {
          "internalType": "uint256",
          "name": "ethDistAmount",
          "type": "uint256"
        }
      ],
      "name": "distributeEth",
      "outputs": [],
      "stateMutability": "payable",
      "type": "function"
    },
    {
      "inputs": [],
      "name": "ethAmount",
      "outputs": [
        {
          "internalType": "uint256",
          "name": "",
          "type": "uint256"
        }
      ],
      "stateMutability": "view",
      "type": "function"
    },
    {
      "inputs": [],
      "name": "feeAmount",
      "outputs": [
        {
          "internalType": "uint256",
          "name": "",
          "type": "uint256"
        }
      ],
      "stateMutability": "view",
      "type": "function"
    },
    {
      "inputs": [],
      "name": "getAdmin",
      "outputs": [
        {
          "internalType": "address",
          "name": "",
          "type": "address"
        }
      ],
      "stateMutability": "view",
      "type": "function"
    },
    {
      "stateMutability": "payable",
      "type": "receive"
    }
  ],
  "bytecode": "0x608060405234801561001057600080fd5b50336000806101000a81548173ffffffffffffffffffffffffffffffffffffffff021916908373ffffffffffffffffffffffffffffffffffffffff1602179055506108c1806100606000396000f3fe60806040526004361061004e5760003560e01c8063421b2d8b146100ae57806369e15404146100d75780636e9960c314610102578063749702001461012d578063c98166c014610149576100a9565b366100a9576100683460015461017490919063ffffffff16565b6001819055507f88a5966d370b9919b20f3e2c13ff65706f196a4e32cc2c12bf57088f88525874333460405161009f92919061061d565b60405180910390a1005b600080fd5b3480156100ba57600080fd5b506100d560048036038101906100d09190610485565b61018a565b005b3480156100e357600080fd5b506100ec61022e565b6040516100f99190610686565b60405180910390f35b34801561010e57600080fd5b50610117610234565b60405161012491906105d9565b60405180910390f35b610147600480360381019061014291906104ae565b61025d565b005b34801561015557600080fd5b5061015e61043f565b60405161016b9190610686565b60405180910390f35b6000818361018291906106bd565b905092915050565b6003819080600181540180825580915050600190039060005260206000200160009091909190916101000a81548173ffffffffffffffffffffffffffffffffffffffff021916908373ffffffffffffffffffffffffffffffffffffffff1602179055507f25ddd06f7eaeb83bb3fbcaa231d4b89e2d7bcd781043983661920061e755a7f08160038054905060405161022392919061061d565b60405180910390a150565b60025481565b60008060009054906101000a900473ffffffffffffffffffffffffffffffffffffffff16905090565b8060015410156102a2576040517f08c379a000000000000000000000000000000000000000000000000000000000815260040161029990610666565b60405180910390fd5b600081905060006102c16003805490508361044590919063ffffffff16565b905060005b6003805490508110156104395760006003828154811061030f577f4e487b7100000000000000000000000000000000000000000000000000000000600052603260045260246000fd5b9060005260206000200160009054906101000a900473ffffffffffffffffffffffffffffffffffffffff1690506000808273ffffffffffffffffffffffffffffffffffffffff1685604051610363906105c4565b60006040518083038185875af1925050503d80600081146103a0576040519150601f19603f3d011682016040523d82523d6000602084013e6103a5565b606091505b5091509150816103ea576040517f08c379a00000000000000000000000000000000000000000000000000000000081526004016103e190610646565b60405180910390fd5b7fb649c98f58055c520df0dcb5709eff2e931217ff2fb1e21376130d31bbb1c0af838660405161041b9291906105f4565b60405180910390a15050508080610431906107b6565b9150506102c6565b50505050565b60015481565b600081836104539190610713565b905092915050565b60008135905061046a8161085d565b92915050565b60008135905061047f81610874565b92915050565b60006020828403121561049757600080fd5b60006104a58482850161045b565b91505092915050565b6000602082840312156104c057600080fd5b60006104ce84828501610470565b91505092915050565b6104e081610780565b82525050565b6104ef81610744565b82525050565b60006105026014836106ac565b91507f4661696c656420746f2073656e642045746865720000000000000000000000006000830152602082019050919050565b60006105426000836106a1565b9150600082019050919050565b600061055c602a836106ac565b91507f496e737566666369656e742065746865722062616c616e636520666f7220646960008301527f73747269627574696f6e000000000000000000000000000000000000000000006020830152604082019050919050565b6105be81610776565b82525050565b60006105cf82610535565b9150819050919050565b60006020820190506105ee60008301846104e6565b92915050565b600060408201905061060960008301856104d7565b61061660208301846105b5565b9392505050565b600060408201905061063260008301856104e6565b61063f60208301846105b5565b9392505050565b6000602082019050818103600083015261065f816104f5565b9050919050565b6000602082019050818103600083015261067f8161054f565b9050919050565b600060208201905061069b60008301846105b5565b92915050565b600081905092915050565b600082825260208201905092915050565b60006106c882610776565b91506106d383610776565b9250827fffffffffffffffffffffffffffffffffffffffffffffffffffffffffffffffff03821115610708576107076107ff565b5b828201905092915050565b600061071e82610776565b915061072983610776565b9250826107395761073861082e565b5b828204905092915050565b600061074f82610756565b9050919050565b600073ffffffffffffffffffffffffffffffffffffffff82169050919050565b6000819050919050565b600061078b82610792565b9050919050565b600061079d826107a4565b9050919050565b60006107af82610756565b9050919050565b60006107c182610776565b91507fffffffffffffffffffffffffffffffffffffffffffffffffffffffffffffffff8214156107f4576107f36107ff565b5b600182019050919050565b7f4e487b7100000000000000000000000000000000000000000000000000000000600052601160045260246000fd5b7f4e487b7100000000000000000000000000000000000000000000000000000000600052601260045260246000fd5b61086681610744565b811461087157600080fd5b50565b61087d81610776565b811461088857600080fd5b5056fea26469706673582212209c37392bf3ece03d5afbcc68137bea1cdecb24b47a21fa7386e92b6ae3eaae2664736f6c63430008000033",
  "linkReferences": {},
  "deployedLinkReferences": {}
}