{
  "_format": "hh-sol-artifact-1",
  "contractName": "EtherDistribute",
  "sourceName": "contracts/ether-distribute.sol",
  "abi": [
    {
      "inputs": [],
      "stateMutability": "nonpayable",
      "type": "constructor"
    },
    {
      "inputs": [],
      "name": "getAdmin",
      "outputs": [
        {
          "internalType": "address",
          "name": "",
          "type": "address"
        }
      ],
      "stateMutability": "view",
      "type": "function"
    }
  ],
  "bytecode": "0x608060405234801561001057600080fd5b50336000806101000a81548173ffffffffffffffffffffffffffffffffffffffff021916908373ffffffffffffffffffffffffffffffffffffffff16021790555060be8061005f6000396000f3fe6080604052348015600f57600080fd5b506004361060285760003560e01c80636e9960c314602d575b600080fd5b6033605f565b604051808273ffffffffffffffffffffffffffffffffffffffff16815260200191505060405180910390f35b60008060009054906101000a900473ffffffffffffffffffffffffffffffffffffffff1690509056fea2646970667358221220679aca1d18428bbb35598fa9f721f86f8b48487ffed8302f96c2ad2e21e24b7b64736f6c63430007030033",
  "linkReferences": {},
  "deployedLinkReferences": {}
}